{"jsonrpc":"2.0","id":1,"method":"eth_getStorageAt","params":["0xc1cadaffffffffffffffffffffffffffffffffff","0x0100000000000000000000000000000000000000000000000000000000000000","latest"]}
{"jsonrpc":"2.0","id":1,"method":"eth_getBlockTransactionCountByNumber","params":["0x1"]}
{"jsonrpc":"2.0","id":1,"method":"eth_getCode","params":["0xc1cadaffffffffffffffffffffffffffffffffff","latest"]}
{"jsonrpc":"2.0","id":1,"method":"eth_chainId"}
{"jsonrpc":"2.0","id":1,"method":"eth_syncing"}
{"jsonrpc":"2.0","id":1,"method":"eth_getLogs","params":[{"address":null,"fromBlock":"0x2","toBlock":"0x5","topics":[["0x00000000000000000000000000000000000000000000000000000000656d6974"],["0xb52248fb459b43720abbf1d5218c4ede9036a623653b31c2077991e04da9a456"]]}]}
{"jsonrpc":"2.0","id":1,"method":"eth_getBlockTransactionCountByHash","params":["0xac5c61edb087a51279674fe01d5c1f65eac3fd8597f9bea215058e745df8088e"]}
{"jsonrpc":"2.0","id":1,"method":"eth_getTransactionByHash","params":["0xb0ebf0d8fca6724d5111d0be9ac61f0e7bf174208e0fafcb653f337c72465b83"]}
{"jsonrpc":"2.0","id":1,"method":"eth_getBlockByHash","params":["0x00000000000000000000000000000000000000000000000000000000deadbeef",true]}
{"jsonrpc":"2.0","id":1,"method":"eth_createAccessList","params":[{"from":"0x0c2c51a0990aee1d73c1228de158688341557508","nonce":"0x0","to":"0x0100000000000000000000000000000000000000","value":"0xa"},"latest"]}
{"jsonrpc":"2.0","id":1,"method":"eth_blobBaseFee","params":[]}
{"jsonrpc":"2.0","id":1,"method":"eth_getTransactionByBlockNumberAndIndex","params":["0x1","0x0"]}
{"jsonrpc":"2.0","id":1,"method":"debug_getRawTransaction","params":["0xbdb37c763e721bf1a0e94e0bc72db704110b2ccc6720713708744422a2cc95d6"]}
{"jsonrpc":"2.0","id":1,"method":"eth_feeHistory","params":["0x1","0x2",[95,99]]}
{"jsonrpc":"2.0","id":1,"method":"eth_getBlockReceipts","params":["0x00000000000000000000000000000000000000000000000000000000deadbeef"]}
{"jsonrpc":"2.0","id":1,"method":"debug_getRawHeader","params":["0x3"]}
{"jsonrpc":"2.0","id":1,"method":"eth_getTransactionByBlockHashAndIndex","params":["0xac5c61edb087a51279674fe01d5c1f65eac3fd8597f9bea215058e745df8088e","0x0"]}
{"jsonrpc":"2.0","id":1,"method":"eth_getTransactionCount","params":["0xc1cadaffffffffffffffffffffffffffffffffff","latest"]}
{"jsonrpc":"2.0","id":1,"method":"eth_estimateGas","params":[{"from":"0xaa00000000000000000000000000000000000000","to":"0x0100000000000000000000000000000000000000"}]}
{"jsonrpc":"2.0","id":1,"method":"eth_getBalance","params":["0xc1cadaffffffffffffffffffffffffffffffffff","latest"]}
{"jsonrpc":"2.0","id":1,"method":"eth_call","params":[{"from":"0x0000000000000000000000000000000000000000","to":"0x9344b07175800259691961298ca11c824e65032d"},"latest"]}
{"jsonrpc":"2.0","id":1,"method":"eth_getTransactionReceipt","params":["0xb0ebf0d8fca6724d5111d0be9ac61f0e7bf174208e0fafcb653f337c72465b83"]}
{"jsonrpc":"2.0","id":1,"method":"eth_getProof","params":["0x7dcd17433742f4c0ca53122ab541d0ba67fc27df",[],"latest"]}
{"jsonrpc":"2.0","id":1,"method":"eth_sendRawTransaction","params":["0xf86c8084044103f38261a894aa000000000000000000000000000000000000000a8255448718e5bb3abd109fa0dd5a76981eee3e5684d994130d05bb165e516c20ea23b149aa1b17b4cb0564e6a021bdb5747224359f458d6463440acd35620e63e78f733e80fb43f4b7b7ab27b6"]}
{"jsonrpc":"2.0","id":1,"method":"eth_blockNumber"}
{"jsonrpc":"2.0","id":1,"method":"eth_getBlockByNumber","params":["0x3e8",true]}
{"jsonrpc":"2.0","id":1,"method":"debug_getRawReceipts","params":["0x3"]}
{"jsonrpc":"2.0","id":1,"method":"debug_getRawBlock","params":["0x3"]}
